:020000040800F2
:1000000008060020F50000081D0100081F01000877
:10001000210100082301000825010008000000005C
:1000200000000000000000000000000027010008A0
:1000300029010008000000002B0100082D01000824
:100040002F0100082F0100082F0100082F010008D0
:100050002F0100082F0100082F0100082F010008C0
:100060002F0100082F0100082F0100082F010008B0
:100070002F0100082F0100082F0100082F010008A0
:100080002F0100082F0100082F0100082F01000890
:100090002F0100082F0100082F0100082F01000880
:1000A0002F0100082F0100082F0100082F01000870
:1000B0002F0100082F0100082F0100082F01000860
:1000C0002F0100082F0100082F0100082F01000850
:1000D0002F0100082F0100082F0100082F01000840
:1000E0002F0100082F0100082F0100082F01000830
:1000F0002F01000811481249124B99423CBF50F899
:10010000042B41F8042BF8D30F494FF000028B4227
:1001100038BF43F8042BFAD30C480047FEE7FEE74C
:10012000FEE7FEE7FEE7FEE7FEE7FEE7FEE7FEE7A7
:1001300007480849084A094B704700007001000849
:1001400000000020040000200806002061010008D3
:1001500008000020080600200802002008020020F5
:1001600002486FF0FF010178FEE700000000002068
:04017000E1E36587DB
:04000005080001618D
:00000001FF
